S0130000526574726F20536E616B652E73726563F3
S11300000C942A000C9447000C9447000C9447006D
S11300100C9447000C9447000C9447000C94470040
S11300200C9447000C9447000C9447000C94470030
S11300300C9447000C9447000C9447000C94470020
S11300400C9447000C9447000C9447000C94470010
S11300500C94470011241FBECFE5D8E0DEBFCDBF0E
S113006016E0A0E6B0E0EAEAF1E102C005900D92E4
S1130070A23BB107D9F727E0A2EBB6E001C01D927D
S1130080A131B207E1F70E945A070C94D3080C94EB
S11300900000FC010FB6F89460910D0770910E07F3
S11300A080910F07909110070FBE309721F0608365
S11300B071838283938308950F931F93CF93DF9368
S11300C08B01D42F880F0E94AC07882351F0C1E024
S11300D00CC0F801EC0FF11D80810E94D107CF5FA5
S11300E001C0C0E0CD17A8F3C0E00E94CB078C2F5D
S11300F0DF91CF911F910F9108950F931F93CF9389
S1130100DF9300D000D01F92CDB7DEB7082F683040
S113011071F4882311F088E001C080E080936400CA
S113012041E064E670E087E20E945C0026C08091B2
S11301306400162F182B1983802F807F812B8460F5
S11301408A838B7F8B8320E1029FC0011124812B42
S113015084608C838B7F8D8345E0BE016F5F7F4F0E
S113016087E20E945C0010FD08C0033030F4E3EF26
S1130170F1E03197F1F700C000000F900F900F905D
S11301800F900F90DF91CF911F910F910895CF930E
S1130190DF93D82FC62FE62FF0E0EB59FF4F808175
S11301A08D2B60E080680E947D00D0930B07C09384
S11301B00C07DF91CF91089560E081E00E947D00FB
S11301C010920C0710920B070895CF93C82F9091AB
S11301D00B0780910A07981710F4CA3041F4609114
S11301E00C076F5F60930C0780E00E94C700CA3061
S11301F049F080910B078F5F80930B0761E08C2F90
S11302000E947D00CF910895CF93DF93EC0103C04A
S113021021960E94E50088818111FACFDF91CF9168
S113022008950F931F93CF93DF9300D000D000D095
S1130230CDB7DEB7082F80E3898394E39A838B8359
S113024080E28C8394E29D838E8380E180930A070D
S1130250E5E6F0E08081805F82838181805F838333
S113026087B3806287BB88B3806288BB0E94A8077B
S11302708BE49DE10197F1F700C0000043E0BE016B
S11302806F5F7F4F87E20E945C00182F81EE94E03D
S11302900197F1F700C0000043E0BE016F5F7F4F9C
S11302A087E20E945C00182B43E0BE016F5F7F4F22
S11302B087E20E945C00182B43E0BE016C5F7F4F15
S11302C087E20E945C00182B60E088E20E947D00B7
S11302D0812B19F088B38F7D88BB60E08CE00E948D
S11302E07D0060E086E00E947D0060E081E00E9485
S11302F07D0060E0802F0E947D0026960FB6F89462
S1130300DEBF0FBECDBFDF91CF911F910F91089536
S113031068E00E947D00089580E090E014C0282FDA
S1130320220F220F25BBFC01EE0FFF1FEE51F94FE8
S1130330218128BB20812BBBE9EFF0E03197F1F755
S113034000C000000196883091054CF380E090E0F5
S113035015C028E0280F220F220F25BBFC01EE0F49
S1130360FF1FEE52F94F218128BB20812BBBE9EFFF
S1130370F0E03197F1F700C0000001968830910554
S113038044F380E090E015C020E1280F220F220FF3
S113039025BBFC01EE0FFF1FEE53F94F218128BB53
S11303A020812BBBE9EFF0E03197F1F700C00000AA
S11303B001968830910544F380E090E015C028E16F
S11303C0280F220F220F25BBFC01EE0FFF1FEE5456
S11303D0F94F218128BB20812BBBE9EFF0E0319755
S11303E0F1F700C0000001968830910544F30895A8
S11303F0883091050CF04BC06830710524F5FC0180
S1130400EE0FFF1FEE51F94F208147E050E0461BED
S1130410570B30E0042E02C0359527950A94E2F775
S113042020FD82C0880F991FFC01EE53F94F808193
S113043090E002C0959587954A95E2F780FD77C0D4
S113044080E090E00895FC01EE0FFF1FEE51F94F9C
S113045021814FE050E0461B570B30E0042E02C0D0
S1130460359527950A94E2F720FD64C0880F991FFB
S1130470FC01EE53F94F818190E002C09595879578
S11304804A95E2F780FD59C080E090E00895683015
S113049071052CF50897FC01EE0FFF1FEE52F94F82
S11304A0208147E050E0461B570B30E0042E02C089
S11304B0359527950A94E2F720FD42C0880F991FCD
S11304C0FC01EE54F94F808190E002C09595879528
S11304D04A95E2F780FD37C080E090E008950897E0
S11304E0FC01EE0FFF1FEE52F94F21814FE050E067
S11304F0461B570B30E0042E02C0359527950A940D
S1130500E2F720FD23C0880F991FFC01EE54F94F38
S1130510818190E002C0959587954A95E2F780FD28
S113052018C080E090E0089581E090E0089581E0B3
S113053090E0089581E090E0089581E090E00895CE
S113054081E090E0089581E090E0089581E090E0FA
S1130550089581E090E0089588309105BCF56830F5
S11305607105D4F447E050E0461B570B21E030E01E
S113057002C0220F331F4A95E2F7880F991FFC012E
S1130580EE53F94F308132273083FC01EE51F94F9D
S113059080812827208308954FE050E0461B570BA5
S11305A021E030E002C0220F331F4A95E2F7880FA2
S11305B0991FFC01EE53F94F318132273183FC013D
S11305C0EE51F94F81812827218308956830710500
S11305D0DCF4FC01389727E030E0261B370B81E080
S11305E090E002C0880F991F2A95E2F7EE0FFF1FD3
S11305F0DF01AE54B94F9C9198279C93EE52F94F6A
S11306009081892780830895FC0138972FE030E09A
S1130610261B370B81E090E002C0880F991F2A95B2
S1130620E2F7EE0FFF1FDF01AE54B94F11969C9114
S11306301197982711969C93EE52F94F918189272F
S113064081830895EF92FF920F931F93CF93DF93CB
S1130650C0E0D0E029C00E942B088C010F70112744
S11306600E942B088F7099277C01BC01C8010E944D
S1130670F801892BC9F48091AA019091AB01081764
S1130680190739F48091AC019091AD01E816F9068F
S113069059F0EAEAF1E011830083F382E282B701C0
S11306A0C8010E94AC0232C02196CA30D1059CF226
S11306B000E010E028C0BE01C8010E94F801892BA7
S11306C0C9F48091AA019091AB010817190739F474
S11306D08091AC019091AD01C817D90759F0EAEAAD
S11306E0F1E011830083D383C283BE01C8010E9459
S11306F0AC020CC0219602C0C0E0D0E0C031D105EC
S1130700D4F20F5F1F4F00311105B4F3DF91CF9185
S11307101F910F91FF90EF9008952091AA013091BD
S1130720AB012817390771F42091AC013091AD0168
S11307302617370751F40E94AC020E94220381E07D
S113074090E0089580E090E0089580E090E00895BE
S113075020E030E019C0C901880F991FFC01EE5157
S1130760F94F10821182FC01EE52F94F108211826E
S1130770FC01EE53F94F10821182FC01EE54F94F43
S1130780108211822F5F3F4F2830310524F3EAEAAB
S1130790F1E08FEF9FEF93838283918380831092A4
S11307A00707109206079093B1018093B001089552
S11307B0CF93DF93CDB7DEB7A0970FB6F894DEBF23
S11307C00FBECDBF0E94A8030E94DC0060E080E061
S11307D00E94C7008FE0E2E7F6E0DE011196019087
S11307E00D928A95E1F7188ACE0101960E940401C0
S11307F061E080E00E94C7008FE0E2E8F6E0DE01FD
S1130800519601900D928A95E1F718A2CE01419676
S11308100E940401A0960FB6F894DEBF0FBECDBFB0
S1130820DF91CF910895CF93DF93CDB7DEB7A09733
S11308300FB6F894DEBF0FBECDBF0E94DC0060E0AF
S113084080E00E94C70088E0E2E9F6E0DE0111964C
S113085001900D928A95E1F7FE01399688E0DF0157
S11308601D928A95E9F74AE0BE01685F7F4F809147
S11308700407909105070E943B08CE0101960E944F
S1130880040161E080E00E94C7008CE0E2EAF6E047
S1130890DE01519601900D928A95E1F7FE017D9655
S11308A084E0DF011D928A95E9F7E091F806F09162
S11308B0F906EE0FFF1FEE50F94F4AE0BE01645EE9
S11308C07F4F808191810E943B08CE0141960E9416
S11308D00401A0960FB6F894DEBF0FBECDBFDF9122
S11308E0CF9108950E9413042FE382E49FE02150E6
S11308F080409040E1F700C000001092AF011092D8
S1130900AE010E94D80308950F931F93CF93DF93F2
S1130910EC018B01452B29F40E94F801892B09F085
S11309205FC0C830D1056CF508301105ACF427E080
S113093030E0201B310B81E090E002C0880F991F4A
S11309402A95E2F7CC0FDD1FCE51D94F9881892724
S1130950888380E090E046C02FE030E0201B310B1C
S113096081E090E002C0880F991F2A95E2F7CC0F2E
S1130970DD1FCE51D94F99818927898380E090E08A
S113098031C008301105B4F4289727E030E0201B6B
S1130990310B81E090E002C0880F991F2A95E2F79D
S11309A0CC0FDD1FCE52D94F98818927888380E0F0
S11309B090E018C028972FE030E0201B310B81E035
S11309C090E002C0880F991F2A95E2F7CC0FDD1F33
S11309D0CE52D94F99818927898380E090E002C063
S11309E081E090E0DF91CF911F910F910895809164
S11309F0020790910307892B29F492B38091A901EE
S1130A00892782BB81E090E09093030780930207DB
S1130A1008958091020790910307009791F0853023
S1130A20910551F492B38091A901892782BB109258
S1130A300307109202070895019690930307809389
S1130A4002070895CF93DF9380E090E028C0E091FF
S1130A50F606F091F706BF0162957295707F7627CE
S1130A60607F7627EB01C75FDE4FC80FD91F48812F
S1130A70DC01AA0FBB1F9D012E53394FF90140839E
S1130A8048854183FB01E759FF4FE80FF91F208197
S1130A90AE54B94F2C93208511962C93019688302F
S1130AA09105ACF2DF91CF910895CF93DF930E942B
S1130AB0A8038091F8069091F906892B31F0809172
S1130AC0F6069091F706892B21F4109205071092EF
S1130AD004070E941304C1E0D0E0D0930907C09337
S1130AE008071092FB061092FA06E091B001F0910B
S1130AF0B1013196F093B101E093B001EE0FFF1F05
S1130B00EE0FFF1FEE53FE4F83E090E0918380834E
S1130B101382128240E050E060E070E00E9484049E
S1130B20E091B001F091B1013196F093B101E093FD
S1130B30B001EE0FFF1FEE0FFF1FEE53FE4F82E0DA
S1130B4090E0918380831382128240E050E060E061
S1130B5070E00E948404E091B001F091B1013196FB
S1130B60F093B101E093B001EE0FFF1FEE0FFF1FF2
S1130B70EE53FE4FD183C0831382128240E050E0D3
S1130B8060E070E081E090E00E948404E091B001B4
S1130B90F091B1013196F093B101E093B001EE0F01
S1130BA0FF1FEE0FFF1FEE53FE4F118210821382C0
S1130BB0128240E050E060E070E080E090E00E944B
S1130BC084048091F8069091F906892B11F00E9413
S1130BD022050E94220381E090E09093AF0180936C
S1130BE0AE01DF91CF910895EF92FF920F931F937F
S1130BF0CF93DF932091B0013091B101F901EE0F51
S1130C00FF1FEE0FFF1FEE53FE4FC081D181028103
S1130C1013818091080790910907880F991FFC019F
S1130C20E654FE4F40815181C40FD51FFC01EE54A0
S1130C30FE4F80819181080F191FDD230CF460960B
S1130C40112314F4005F1F4FC031D1050CF06097DD
S1130C500031110514F0005111092B3281E03807DD
S1130C6029F41092B1011092B00106C02F5F3F4FDA
S1130C703093B1012093B001E091B001F091B10142
S1130C80EE0FFF1FEE0FFF1FEE53FE4FD183C08305
S1130C9013830283B801CE010E948D03892B49F589
S1130CA0E0910607F0910707EE0FFF1FEE0FFF1FFD
S1130CB0EE53FE4F6281738141E050E08081918167
S1130CC00E94840480910607909107078B3221E0EB
S1130CD0920739F41092070710920607E12CF12CC1
S1130CE057C001969093070780930607E12CF12CD7
S1130CF04FC00E94F7048091040790910507019664
S1130D0090930507809304072091F8063091F90623
S1130D1021303105E9F480FD1EC08091F6069091E2
S1130D20F7068330910519F4E12CF12C03C0EE246D
S1130D30E394F12C8330910509F001969093F70622
S1130D408093F606E114F10441F00E94550505C0B4
S1130D50E12CF12C02C0E12CF12C8091F806909149
S1130D60F906FC01EE0FFF1FEE50F94F408151814F
S1130D702091040730910507421753073CF4880F6C
S1130D80991FFC01EE50F94F318320830E94130414
S1130D90EF2851F440E050E0B801CE010E948404F1
S1130DA0892B11F00E947204DF91CF911F910F9152
S1130DB0FF90EF9008958091080790910907833080
S1130DC0910511F0019602C080E090E0909309072C
S1130DD08093080708958091080790910907009768
S1130DE011F0019702C083E090E09093090780938B
S1130DF0080708959093F9068093F8061092F70671
S1130E001092F6060E94550508958091FC06909173
S1130E10FD06009729F001979093FD068093FC0648
S1130E208091FC069091FD06892BB1F5809919C03B
S1130E308091000790910107892B99F08091AE0170
S1130E409091AF01892B19F00E94EB0604C081E058
S1130E5090E00E94FA068AE090E09093FD06809369
S1130E60FC06819919C08091FE069091FF06892B9A
S1130E7099F08091AE019091AF01892B19F00E94F5
S1130E80DB0604C080E090E00E94FA068AE090E06D
S1130E909093FD068093FC0680B3817080930007D5
S1130EA01092010780B3827090E09093FF068093C4
S1130EB0FE06089582E00E94110180E00E948801EC
S1130EC08FE493EC0197F1F700C0000081E00E94E9
S1130ED088018FE493EC0197F1F700C000008FEFD5
S1130EE084BB87BB8ABB80E481BB80E090E00E9426
S1130EF04900CB010E9430081092AF011092AE015C
S1130F000E94D80380E884BF84BF84BF0E9409057F
S1130F100E9405078091AE019091AF01892BB1F336
S1130F200E948C018091FA069091FB060A9731F495
S1130F300E94F4051092FB061092FA068091FA06BC
S1130F409091FB0601969093FB068093FA06DECF00
S1130F5011B88CE080B9089594EA96BF06B607FEEE
S1130F60FDCF91B1987F983011F0903171F483B92D
S1130F7084E886BF06B607FEFDCF81B1887F88313D
S1130F8031F0803431F480E0089581E0089580E008
S1130F90089581E0089584E986BF06B604FCFDCF78
S1130FA0089583B984E886BF06B607FEFDCF81B1F4
S1130FB0887F883211F081E0089580E008958F924F
S1130FC09F92AF92BF92CF92DF92EF92FF92CF9314
S1130FD0DF93EC01688179818A819B8161157105B8
S1130FE08105910521F464E279ED8BE597E02DE12B
S1130FF033EF41E050E00E94700849015A019B011F
S1131000AC01A7EAB1E40E948F086B017C01ACEE4D
S1131010B4EFA50194010E949D08DC01CB018C0D65
S11310209D1DAE1DBF1DB7FF03C00197A109B048A8
S113103088839983AA83BB839F77DF91CF91FF90A5
S1131040EF90DF90CF90BF90AF909F908F900895D6
S11310500E94DF07089580E690E00E94DF0708956C
S1131060A0E0B0E08093600090936100A0936200E0
S1131070B09363000895BB274A3031F4992322F4D6
S1131080BDE2909581959F4F0C944708BB27FB01C7
S11310905527AA27880F991FAA1FA41710F0A41B6D
S11310A083955051B9F7A05DAA3308F0A95DA193C7
S11310B0009779F7B111B1931192CB010C946008A8
S11310C0DC01FC01672F71917723E1F7329704C0AB
S11310D07C916D9370836291AE17BF07C8F3089536
S11310E0052E97FB1EF400940E94870857FD07D035
S11310F00E94A20807FC03D04EF40C948708509574
S11311004095309521953F4F4F4F5F4F08959095EF
S11311108095709561957F4F8F4F9F4F08950E94E2
S1131120C408A59F900DB49F900DA49F800D911DA0
S113113011240895B7FF0C948F080E948F08821B16
S1131140930B0895A1E21A2EAA1BBB1BFD010DC02F
S1131150AA1FBB1FEE1FFF1FA217B307E407F50763
S113116020F0A21BB30BE40BF50B661F771F881F3F
S1131170991F1A9469F760957095809590959B01D5
S1131180AC01BD01CF010895A29FB001B39FC0017E
S1131190A39F700D811D1124911DB29F700D811D9F
S10D11A01124911D0895F894FFCF67
S11311AA010000000880C000000000000000404068
S11311BA000000000000020200000020202020009D
S11311CA0000000404040400000000000040407011
S11311DA000000000002020E0024242424242424F3
S11311EA24242424242424242400000000000000AD
S11311FA00000000000000000000000000000000E1
S113120A00000000000000000000000000000000D0
S113121A00000000000000000000000000000000C0
S113122A00000000000000000000000000000000B0
S113123A00000000000000000000000000000000A0
S113124A0000000000000000000040400000000010
S113125A00000202000000000000002020202000FC
S113126A0000000404040400000070404000000070
S113127A00000E020200000000000024242424249A
S113128A2400002424242424240000000000000054
S113129A0000000000000000000000000000000040
S11312AA0000000000000000000000000000000030
S11312BA0000000000000000000000000000000020
S11312CA0000000000000000000000000000000010
S11312DA0000000000000000000000000000000000
S11312EA00000000000000000040FFFFFFFF0100B3
S11312FA0100000001000000FFFFFFFF00000100E1
S113130A00000200080001000800000000000000BC
S113131A00000000000000000000000000000000BF
S113132A00000000000000000000000000000000AF
S113133A000000000000000000000000000000009F
S113134A000000000000000000000000000000008F
S11317BA0000436C61737369633A20526967687401
S11317CA00004F62737461636C653A204C656674F9
S11317DA000053636F72653A2000000000000000A5
S11317EA00004869676853636F72653A2000000015
S10517FA0000E9
S9030000FC
